:100000000C9440000C9400000C9400000C94000030
:100010000C9400000C9400000C9400000C94000060
:100020000C9400000C9400000C9400000C94000050
:100030000C9400000C9400000C9400000C94000040
:100040000C9400000C9400000C9400000C94000030
:100050000C94000054657374204C434473657269BA
:10006000616C202100746573742070617373656422
:1000700021001100600254000D00710265000000B3
:10008000F894EE27ECBBF1E0FBBFEBBFE5BF8DE0E2
:10009000A2E0BB27ED938A95E9F780E098E0A0E61F
:1000A000ED930197E9F7E2E7F0E0859195910097EC
:1000B00061F0A591B59105901590BF01F0010590F3
:1000C0000D920197E1F7FB01F0CFEFE5EDBFE8E01E
:1000D000EEBFC0E6D2E00C946D007AD0E0E0EA9387
:1000E000A0E094D0A0E6B2E0A8D0E0E0EA93A1E0DE
:1000F0008DD0B4D0BBD0BAD0A0E27ED0A0E27CD06C
:10010000ADD0A8E8B3E10E94860195D010E010318F
:1001100060F491D01A93A0E079D0AEE36DD0A8EC52
:10012000B0E00E9486011F5FF2CF85D0A1E7B2E068
:1001300084D0A8EBBBE00E948601D0CFFFCFAA936A
:100140001A930A9310E0E4B3E06EE4BB00E00830D9
:10015000A8F4E02FA1E00E9490011E2F83E08A9571
:10016000F1F7EA81E12311F0AE9A01C0AE98AD9AA1
:1001700083E08A95F1F7AD980F5FE9CFAF9A83E0FE
:100180008A95F1F7AF981981088123960895AA936B
:10019000E881E03041F470D074D06ED079D07FD057
:1001A00070D07DD075D0A881A13041F465D07CD0CD
:1001B00063D081D074D078D072D07DD0A881A230A5
:1001C00031F45AD0E0647FD057D0EF7B7CD044C06C
:1001D000A2E37FD0A5E07DD08CE291E00197F1F71A
:1001E000E0E37ED0E0E27CD0E8E281D0ECE07FD0BA
:1001F00085D0E6E07CD00895AA93E881EA93A1E057
:10020000C6DF8BE68A95F1F721960895AA93E881D7
:10021000E03029F4E981E058EA93A0E0B8DFA88152
:10022000A13029F4E981E054EA93A0E0B0DF8BE645
:100230008A95F1F711C062D00895BA93AA93A88164
:10024000B981EC91E03041F0AC91D6DFE881F981E1
:100250003196E883F983F3CF22960895A4E5CCDFA5
:10026000A5E4CADFA3E5C8DFA4E5C6CFA0E2C4DFEA
:10027000A0E2C2DFA0E2C0CFE981E695E695EC738B
:100280000895E064AE2F5BDF83E08A95F1F708956F
:10029000EF7BAE2F54DF83E08A95F1F70895E98173
:1002A000EE0FEE0FEC730895E06CAE2F48DF83E0A5
:1002B0008A95F1F70895EF7BE068AE2F40DF83E089
:1002C0008A95F1F70895AE2F3ADF8DE08A95F1F720
:1002D0000895B0E00E948601E0E3EA93A2E057CFE0
:1002E000EA93A2E054DF8BE68A95F1F70895EA934A
:1002F000A0E04DDF8BE68A95F1F70895E1E0EA93FF
:10030000A0E045DFA2E0B0E00C948601109639F041
:10031000A89580ED97E00197F1F71197C9F7089537
:10032000EE230E2EEA2F19F0EE0F0A94E9F7089546
:00000001FF
